:020000040800F2
:10000000F0470020612D0008E9050008EB05000815
:10001000F5050008F9050008FD05000800000000CE
:1000200000000000000000000000000001060008C1
:100030000306000800000000F3EC0008292B00086C
:100040007B2D00087B2D00087B2D00087B2D0008F0
:100050007B2D00087B2D0008E90600087B2D000899
:100060007B2D00087B2D00083F0700080B080008C7
:100070007B2D00087B2D00087B2D00087B2D0008C0
:100080007B2D00087B2D00087B2D00087B2D0008B0
:100090007B2D00087B2D00087B2D000865070008DC
:1000A0007B2D00087B2D00087B2D00087B2D000890
:1000B0004F060008050600087B2D00087B2D000870
:1000C0007B2D00087B2D00087B2D00087B2D000870
:1000D0007B2D00086B0600087B2D00087B2D000897
:1000E000C30700087B2D00087B2D0008DFF80CD02B
:1000F0000EF0A6FD00480047A1020008F0470020CE
:1001000030B5072B67D2DFE803F06604182C343CC7
:1001100051000C783CB9FE4C24680D88A4F80550B9
:100120008D78E57108E00C78032C05D1F84C246833
:100130000D8825818D78A5724DE00C783CB9F44C82
:1001400024680D88A4F80B508D78657308E00C784E
:10015000032C05D1EE4C24680D88E5818D7825743B
:1001600039E0EB4C24680D68C4F811500D796575C1
:1001700031E0E74C24680D68C4F816500D79A57677
:1001800029E00C783CB9E24C24680D88A4F81B5097
:100190008D78657709E00C78032C06D1DC4C246857
:1001A0000D88E5838D7884F8205014E00C783CB9F4
:1001B000D74C24680D8824F8215F8D78A57009E05C
:1001C0000C78032C06D1D24C24680D88A5848D7838
:1001D00084F8265000BF00BF30BD38B50446002566
:1001E00000BF05F09BF968460BF005F96A4601214E
:1001F000084607F08EF900BF00BF00BF05F0C6FA41
:10020000054600BF00BFC3480078401CC1490870C4
:1002100000BF00BF284605F0BDFA00BF00BF00BF09
:1002200001F0D8F901F088FAB948006801F0E1FA64
:10023000B748006801F026FA01F012F900BF00BFCC
:1002400000BF05F0A3FA054600BF00BFB148007823
:10025000401EB049087008460078A0B9AE48008832
:10026000002809DD00BF00BF284605F093FA00BF53
:1002700000BF07F037FD0DE000BF00BF284605F0C6
:1002800089FA00BF06E000BF00BF284605F082FAE9
:1002900000BF00BF00BF694600200BF0EEFC38BD78
:1002A00030B595B0012080F3108800BF002502F022
:1002B000F5FB4FF48071994802F0D9FF02F016FD6A
:1002C00002F03EFC02F0CEFA02F031F90FA803F082
:1002D00072FB00F060FB08B100BFFEE7002428209D
:1002E0000EF010FE8A4908603C21894800680EF033
:1002F00037FA012002F057F811208DF8380010204D
:100300000D9020200C9040F24710ADF82800AFF27D
:100310000F200B900AA801F0C2FB04466CB94FF401
:1003200080717E4802F0A1FF642002F0BEFC4FF411
:1003300080717A4802F09BFF04E04FF480717748A7
:1003400002F095FF022002F02EF812208DF83800FE
:1003500040200D9080200C9040F24710ADF828000E
:10036000AFF263200B900AA801F099FB04466CB928
:100370004FF48071694802F078FF642002F095FC28
:100380004FF48071654802F072FF04E04FF4807111
:10039000624802F06CFF032002F005F813208DF88C
:1003A00038004FF480500D9040000C9040F2471000
:1003B000ADF82800AFF2B7200B900AA801F06FFB50
:1003C00004466CB94FF48071544802F04EFF64202B
:1003D00002F06BFC4FF48071504802F048FF04E0DB
:1003E0004FF480714D4802F042FF042001F0DBFF22
:1003F00014208DF838004FF400400D9008200C9028
:1004000040F24710ADF82800AFF20B300B900AA86D
:1004100001F045FB04466CB94FF480713F4802F08F
:1004200024FF642002F041FC4FF480713B4802F04D
:100430001EFF04E04FF48071384802F018FF0520D9
:1004400001F0B1FF15208DF8380020200D9010200C
:100450000C9040F24710ADF82800AFF25B300B90E3
:100460000AA801F01CFB04466CB94FF480712B48BC
:1004700002F0FBFE642002F018FC4FF48071274864
:1004800002F0F5FE04E04FF48071244802F0EFFE24
:10049000062001F088FF16208DF838004FF4807098
:1004A0000D9040000C9040F24710ADF82800AFF2DC
:1004B000AF300B900AA801F0F2FA04466CB94FF481
:1004C0008071164802F0D1FE642002F0EEFB4FF47A
:1004D0008071124802F0CBFE04E04FF480710F48A7
:1004E00002F0C5FE4FF480710C4802F0BEFE14A865
:1004F00006F0E6FD00BF00BF00BF05F047F9054666
:1005000000BF00BF03480078401C0249087007E0A4
:100510000000002024010020E80000200008014025
:1005200000BF00BF284605F035F900BF00BF00BF7F
:1005300014A8032100220592CDE906210890104657
:1005400080210C22214BCDE90132CDE9031003209B
:100550000023AFF279321EA1009020480BF052FA2E
:1005600000BF00BF00BF05F011F9054600BF00BF86
:100570001B480078401E1A49087008460078A0B948
:1005800018480088002809DD00BF00BF284605F094
:1005900001F900BF00BF07F0A5FB0DE000BF00BFE1
:1005A000284605F0F7F800BF06E000BF00BF284668
:1005B00005F0F0F800BF00BF00BF14A807F049F82D
:1005C000002080F3108800BF15B030BD5802002015
:1005D0007374617274207461736B00009401002065
:1005E00024010020E8000020704702E087A00EF000
:1005F000B1FBFBE700BFFEE700BFFEE700BFFEE781
:100600007047704710B506F0F1FD0121844804F0F1
:100610000EFFA8B1012083490870834800884CF27E
:100620005031884205DA80480088401C7E490880A5
:1006300002E000207C49088000F0F8F900F0BCFAE4
:100640000121774804F004FF06F0E1FD10BD10B56C
:1006500006F0CCFD0121880704F0E9FE012188079E
:1006600004F0F6FE06F0D3FD10BD10B506F0BEFD99
:1006700040F225516D4803F059F888B140F22551F8
:100680006A4803F07DF8694802F0D0FF6849694A7A
:100690001278885467480078401C6649087013E057
:1006A00040F22441614803F041F801280CD162492D
:1006B00008705E480088614908705C48001D008829
:1006C000087000205B4908700821584803F018F8AA
:1006D000012806D10821554803F01FF8534802F0BD
:1006E000A5FF06F094FD10BD1CB506F07FFD0120AE
:1006F00003F0AAFA00B3012003F0B7FA50480078DB
:1007000001280BD101A800231A46012100904D4871
:1007100008F0F0F900204A4908700DE048480078D8
:1007200050B901A80023012211460090454808F065
:10073000E1F901204249087006F069FD1CBD10B5C1
:1007400006F054FD102003F07FFA40B1102003F0B2
:100750008CFA012001F027FE012001F0B1FB06F028
:1007600056FD10BD10B506F041FD202003F06CFAD7
:1007700040B1202003F079FA052001F014FE052095
:1007800001F09EFB402003F05FFA40B1402003F0EF
:100790006CFA022001F007FE022001F091FB4FF4F9
:1007A000807003F051FA48B14FF4807003F05DFAA5
:1007B000062001F0F8FD062001F082FB06F027FD7F
:1007C00010BD10B506F012FD4FF4004003F03CFAE6
:1007D00048B14FF4004003F048FA042001F0E3FD73
:1007E000042001F06DFB4FF4805003F02DFA48B166
:1007F0004FF4805003F039FA032001F0D4FD0320B8
:1008000001F05EFB06F003FD10BD70474552524FEC
:100810005220484152444641554C5421210A00007F
:1008200000040040080000201C00002000380140A7
:100830005804002020000020210000202200002079
:1008400023000020FC1D002070B506460C4615460E
:1008500001F080FE304601F01BFF01F0F4FE18B9F4
:1008600001F0A3FE002070BD204601F011FF01F051
:10087000EAFE18B901F099FE0020F4E7284601F0DD
:1008800007FF0A2002F011FA01F0DDFE18B901F0AD
:100890008CFE0020E7E701F088FE0A2002F005FA4E
:1008A0000120E0E770B504460D46002601F052FE37
:1008B000204601F0EDFE01F092FE284601F0E8FE30
:1008C00001F08DFE01F046FE44F0010001F0E0FE73
:1008D00001F085FE01F006FF064601F09AFE01F0E8
:1008E00064FE304670BD2DE9F04107460C461546C2
:1008F0001E46384601F0CCFE01F0A5FE20B901F0FD
:1009000054FE0020BDE8F081284601F0C1FE01F050
:100910009AFE05E0207801F0BBFE01F094FE641C15
:100920003000A6F10101CEB2F4D101F03EFE0A2062
:1009300002F0BBF90120E5E72DE9F04106460F463C
:1009400015461C4601F006FE304601F0A1FE01F0FE
:100950007AFE384601F09CFE01F075FE01F0FAFDCA
:1009600046F0010001F094FE01F06DFE0CE001F094
:10097000B9FE2870012C02D101F04BFE01E001F01C
:100980002EFE6D1C601EC4B2002CF0D101F00DFED5
:100990000120BDE8F08110B54FF4967002F085F9A2
:1009A00000226B21D020FFF74FFF642002F07DF979
:1009B0007521D020FFF776FFFE49087008460078C1
:1009C000732831D14FF47A7002F06FF980226B21D5
:1009D000D020FFF739FF00226C21D020FFF734FF31
:1009E00001221921D020FFF72FFF04221A21D02045
:1009F000FFF72AFF18221B21D020FFF725FF002236
:100A00006A21D020FFF720FF10221C21D020FFF701
:100A10001BFF04221D21D020FFF716FF4FF4967014
:100A200002F043F9002010BD0120FCE72DE9F04160
:100A30003C21D020FFF736FFDF4908703B21D02052
:100A4000FFF730FFDC49487008460078497840EAF3
:100A5000012000B2D94908803E21D020FFF722FFB3
:100A6000D54988703D21D020FFF71CFFD249C870BE
:100A700008468078C97840EA012000B2D049088051
:100A80004021D020FFF70EFFCB4908713F21D02035
:100A9000FFF708FFC849487108460079497940EADC
:100AA000012000B2C7490880C748B0F9000041F2F0
:100AB0001111884244D1C4484088C0490988081AA5
:100AC00000B2C2490880C0488088BD490988081A18
:100AD00000B2BE494880BC48C088BA490988081A93
:100AE00000B2BA498880B1F900000DF087FF0646D0
:100AF000B74AB84B0DF007FF04460DF0BCFFB649EE
:100B00000860B249B1F902000DF078FF0646B04A1C
:100B1000B04B0DF0F8FE04460DF0ADFFAE49486055
:100B2000AA49B1F904000DF069FF0646A84AA94B8D
:100B30000DF0E9FE04460DF09EFFA749886038E0FD
:100B40009E48B0F90000A14908809D48B0F9000016
:100B500048809C48B0F900008880B1F900000DF091
:100B60004DFF06469A4A9B4B0DF0CDFE04460DF014
:100B700082FF9A4908609549B1F902000DF03EFFE5
:100B80000646934A934B0DF0BEFE04460DF073FFEC
:100B9000924948608D49B1F904000DF02FFF0646D7
:100BA0008B4A8C4B0DF0AFFE04460DF064FF8B4971
:100BB00088608148BDE8F0812DE9F0414421D020D2
:100BC000FFF770FE7C4908704321D020FFF76AFED2
:100BD0007949487008460078497840EA012000B217
:100BE000764908804621D020FFF75CFE7249887064
:100BF0004521D020FFF756FE6F49C870084680781F
:100C0000C97840EA012000B26D4908804821D0200F
:100C1000FFF748FE684908714721D020FFF742FEE0
:100C20006549487108460079497940EA012000B2D7
:100C3000644908806448B0F9080042F222218842E1
:100C400044D1614840895D490988081A00B2644965
:100C500008805D4880895A490988081A00B26049AD
:100C600048805948C08957490988081A00B25C4928
:100C70008880B1F900000DF0C1FE0646594A5A4B72
:100C80000DF041FE04460DF0F6FE5349C86054498C
:100C9000B1F902000DF0B2FE0646524A524B0DF079
:100CA00032FE04460DF0E7FE4B4908614C49B1F9AC
:100CB00004000DF0A3FE06464A4A4B4B0DF023FEFE
:100CC00004460DF0D8FE4449486138E03B48B0F98D
:100CD0000000434908803A48B0F90000488039488C
:100CE000B0F900008880B1F900000DF087FE0646DB
:100CF0003C4A3D4B0DF007FE04460DF0BCFE374963
:100D0000C8603749B1F902000DF078FE0646354A51
:100D1000354B0DF0F8FD04460DF0ADFE2F4908618E
:100D20002F49B1F904000DF069FE06462D4A2E4BFD
:100D30000DF0E9FD04460DF09EFE284948611E486D
:100D4000BDE8F0812DE9F04F87B011220A2118206B
:100D5000FFF77AFD03211820FFF7A4FD164908705C
:100D600004211820FFF79EFD1349487008460078BB
:100D7000497840EA012000B2104908800521182076
:100D8000FFF790FD0C49887006211820FFF78AFDB7
:100D90000949C87008468078C97840EA012000B245
:100DA0000749088007211820FFF77CFD02490871D8
:100DB00008211BE0400000205805002046000020CC
:100DC000480000204A000020F20400200A00002011
:100DD000B81E85EB51B8633F340500201005002094
:100DE00010000020ABAAAA020B74513F1820FFF795
:100DF00059FDFE49487108460079497940EA0120C9
:100E000000B2FB490880FB48B0F9100043F23331CF
:100E100088427DD1F848B0F90000F8490880F848C8
:100E2000B0F900004880F248B0F900008880F54928
:100E300008680DF00DFE04460D46EE49B1F91800A4
:100E40000DF0D3FDEB490290B1F91A000DF0CDFD84
:100E5000019002990DF019FDE6490490B1F91200D4
:100E60000DF0C3FDE84900900DF00FFDE34902903D
:100E7000B1F900000DF0B9FD019002990DF0CDFC23
:100E8000039004990DF0CFFC05900DF0E1FD0646AE
:100E9000DE4ADF4B0DF037FD824622462B460DF031
:100EA00032FD80460DF0E7FDDA498861D549486892
:100EB0000DF0CEFD06460F46CE49B1F91A000DF0F1
:100EC00094FDCC490290B1F91A000DF08EFD01900D
:100ED00002990DF0DAFC8346C649B1F914000DF011
:100EE00084FDC94900900DF0D0FCC4490290B1F9CD
:100EF00002000DF07AFD019002990DF03CFC59467C
:100F000003900DF090FC82460DF0A2FDBF4A00E078
:100F10004EE0BF4BCDE904010DF0F5FC80463246B2
:100F20003B460DF0F0FC04460DF0A5FDB949C86143
:100F3000B44988680DF08CFD04460D46AD49B1F901
:100F40001C000DF052FDAB490290B1F91A000DF0F2
:100F50004CFD019002990DF098FCA6490490B1F95E
:100F600016000DF042FDA84900900DF08EFCA3493B
:100F70000290B1F904000DF038FD019002990DF0D6
:100F8000FAFB039004990DF04EFC05900DF060FD06
:100F900080469E4A9E4B0DF0B6FC064622462B46E6
:100FA0000DF0B1FC82460DF066FD9A4908625AE0E8
:100FB0009148B0F90000914908809148B0F90000CB
:100FC00048808B48B0F9000088808E4908680DF091
:100FD0003FFD82468B468949B1F900000DF00EFDB8
:100FE00006468A4A8A4B0DF08EFC804652465B4686
:100FF0000DF089FC04460DF03EFD8749886181496A
:1010000048680DF025FD04460D467C49B1F9020003
:101010000DF0F4FC82467D4A7D4B0DF074FC0646D3
:1010200022462B460DF06FFC80460DF024FD7A49D8
:10103000C861744988680DF00BFD06460F466F497C
:10104000B1F904000DF0DAFC8246704A704B0DF0E5
:101050005AFC804632463B460DF055FC04460DF0E6
:101060000AFD6D49086207B0BDE8F08F2DE9F04137
:1010700000240025002600270EE0FFF7D7FC641CA3
:101080006648B0F9000005446448B0F9020006441F
:101090006248B0F904000744B4F5FA7FEDDB95FB34
:1010A000F4F000B25E49088096FBF4F000B248808C
:1010B00097FBF4F000B2888041F211105949088082
:1010C000574800884880564840888880544880881F
:1010D000A0F58050C8800422534800F04EF9002447
:1010E000BDE8F0812DE9F04100240025002600270D
:1010F0000EE0FFF761FD641C4C48B0F900000544A8
:101100004A48B0F9020006444848B0F904000744D0
:10111000B4F5FA7FEDDB95FBF4F000B244490880AA
:1011200096FBF4F000B2488097FBF4F000B28880A0
:1011300042F222203B4908803D48008848803C48D4
:10114000408888803A488088C88004223648083021
:1011500000F013F90024BDE8F0812DE9F0470746BF
:101160000C4615461E46DDE908894FF07E5138468B
:101170000DF059FB82460DF052FC00B22D4908805B
:101180004FF07E5120460DF04EFB82460DF047FC9D
:1011900000B2284948804FF07E5128460DF043FBAD
:1011A00082460DF03CFC00B2224988804FF07E510F
:1011B00030460DF038FB82460DF031FC00B21D497F
:1011C000C8804FF07E5140460DF02DFB82460DF059
:1011D00026FC00B2174908814FF07E5148460DF0B9
:1011E00022FB82460DF01BFC00B225E058050020D2
:1011F0004A000020F20400204600002016000020D3
:1012000048000020340000200000C842223749373F
:10121000E590583F34050020100500200A0000200A
:1012200024000020E404002000E00008100000205A
:101230002A000020D80400203849488143F2333086
:10124000374908803548008848803448408888807D
:1012500032488088C8803148C08808812F4800897A
:1012600048812E484089888107222E4800F085F861
:10127000BDE8F08710B50F222B492A48103800F03E
:101280006BF810BD10B500240A211820FFF70AFBE7
:10129000044624F00F020A211820FFF7D5FA6B212B
:1012A000D020FFF7FFFA044644F010026B21D02053
:1012B000FFF7CAFA0A2001F0F8FC10BD10B56B2147
:1012C000D020FFF7EFFA044601226B21D020FFF770
:1012D000BBFA0A2001F0E9FC10BD10B56B21D0204B
:1012E000FFF7E0FA044624F040026B21D020FFF71C
:1012F000ABFA642001F0D9FC10BD10B56B21D020F1
:10130000FFF7D0FA044644F040026B21D020FFF7EB
:101310009BFA642001F0C9FC10BD0000D804002035
:10132000E404002010E00008F204002001460888D0
:1013300070472DE9F04105460E461746002407E0A8
:1013400036F81410284602F000FEAD1C601C84B272
:10135000BC42F5DBBDE8F08130B503460C461546CE
:10136000002207E01846FFF7E1FF24F812009B1C5B
:10137000501C82B2AA42F5DB30BD2DE9F05F8046F9
:101380008A461746B8F1006F02D33348804501D32F
:10139000BDE8F09F02F091FCA8F1006B4FEA9B259D
:1013A000CBF34809C9F50074A74200DC3C464DE088
:1013B0004FF0006101EB85208A142849FFF7CCFF2C
:1013C00000260BE009EB0600244931F810004FF627
:1013D000FF71884200D003E0701C86B2A642F1DBA8
:1013E00000BFA6421BDA4FF0006101EB852002F03E
:1013F000A9FC002608E03AF8160006EB0901174A96
:1014000022F81100701C86B2A642F4DB4FF0006196
:1014100001EB85208A141149FFF78BFF04E0224677
:1014200051464046FFF785FFA74200D10FE06D1CF3
:101430004FF000090AEB440AA044381B87B2B7F505
:10144000007F02DD4FF4007400E03C46B0E700BFCF
:1014500002F03FFC00BF9BE700000108620500208E
:1014600010B523460022FBA1FE4806F0BCFD10BDCE
:101470000EB500BF00BF53E04FF48071FA4801F091
:10148000F6FE02A8002164230A46CDE900100846B2
:101490000CF0C5F94FF48071F34801F0E6FE02A8A4
:1014A000002164230A46CDE9001008460CF0B7F984
:1014B0004FF48071EC4801F0DAFE02A800216423A9
:1014C0000A46CDE9001008460CF0A9F94FF48071E6
:1014D000E54801F0CAFE02A8002164230A46CDE9CE
:1014E000001008460CF09BF94FF48071DE4801F0C3
:1014F000BEFE02A8002164230A46CDE9001008467A
:101500000CF08DF94FF48071D74801F0AEFE02A8BF
:1015100000210B460322CDE9001008460CF07FF9AC
:10152000AAE70EB500BF00BF53E04FF40041CF481B
:1015300001F09DFE02A8002164230A46CDE90010B7
:1015400008460CF06CF94FF40041C84801F08DFEDC
:1015500002A8002164230A46CDE9001008460CF0D9
:101560005EF94FF40041C14801F081FE02A800215C
:1015700064230A46CDE9001008460CF050F94FF4F8
:101580000041BA4801F071FE02A8002164230A4616
:10159000CDE9001008460CF042F94FF40041B34881
:1015A00001F065FE02A8002164230A46CDE900107F
:1015B00008460CF034F94FF40041AC4801F055FEF8
:1015C00002A800210B460322CDE9001008460CF0CA
:1015D00026F9AAE710B58AB0002409A80321002241
:1015E0000592CDE906210890104680210C22A04BDF
:1015F000CDE90132CDE9031007200023AFF2DD026F
:101600009CA100909F480AF0FDF909A8032100223F
:101610000592CDE906210890104680210C229A4BB4
:10162000CDE90132CDE9031007200023AFF2BF124C
:1016300096A1009099480AF0E5F909A997480BF09E
:101640006BFD0AB010BD0EB50446254619E0FFF744
:10165000EDF90646306845F8270FB088A880FFF7F7
:10166000ABFA06463068C5F80600B0886881273DA9
:1016700002A8002114230A46CDE9001008460CF008
:10168000CEF8E4E730B58BB0044600250AA8032164
:1016900000220592CDE90621089010464FF4807192
:1016A00019227F4BCDE90132CDE9031005202346F5
:1016B000AFF26D027BA100907F480AF0A3F90BB056
:1016C00030BD70B50446002500BF012000F06BFE60
:1016D000012000F086F9012000F06BF9022000F0F3
:1016E00062FE012000F07DF9012000F062F9032084
:1016F00000F059FE032000F03BFA012000F059F9F8
:10170000042000F050FE032000F032FA012000F027
:1017100050F9052000F047FE012000F062F9012099
:1017200000F047F9062000F03EFE012000F059F9D4
:10173000012000F03EF970BD10B58AB0002409A860
:10174000032100220592CDE9062108901046802150
:101750000C225A4BCDE90132CDE9031006200023BB
:10176000AFF2A10256A1009059480AF04BF90AB015
:1017700010BD1FB5054600BF2C4600200290002674
:101780000027AA20207033E000220299D1F1FF3116
:1017900072EB020003DB0298401C029001E0002083
:1017A00002909DF8080060709DF80900A0709DF8F7
:1017B0000A00E0709DF80B002071002002E0215C1F
:1017C0000E44401C3A28FADBF7B284F83A70CD2078
:1017D00084F83B0000263C21284601F0BFF803A80E
:1017E000002114230A46CDE9001008460CF017F832
:1017F000CAE730B58BB0044600250AA803210022B1
:101800000592CDE90621089010464FF480718022A0
:10181000304BCDE90132CDE9031004202346AFF26D
:10182000AD022DA1009031480AF0ECF80BB030BDAC
:10183000704710B58AB0002409A803210022059240
:10184000CDE906210890104680210C22284BCDE9D5
:1018500001324FE04D6561737572654576656E7452
:1018600000000000FC1D002000080140000C0140A9
:10187000280A0020424C454420426C696E6B20745B
:1018800061736B0064090020EC0C0020594C454446
:1018900020426C696E6B207461736B00280C002011
:1018A000B00F00204765745F4D50555F446174610F
:1018B000207461736B000000EC0E00207414002093
:1018C0004144535F52756E207461736B00000000D9
:1018D000B013002038170020446174615F526570B6
:1018E0006F7274207461736B000000007416002026
:1018F000FC1B0020CDE9031008200023AFF2CF022B
:1019000003A1009007480AF07DF80AB010BD00005E
:101910005374617475735F436865636B5F7461735F
:101920006B000000381B002070B504460D462B46A6
:10193000002221461046974E3668B04770BD2DE90B
:10194000F84304460D460321684600F0A8FA06460F
:101950004EBB9DF8000088B99DF8000028700DF17D
:1019600001000DF0C1FA074638460DF03EF88046FA
:101970004FF085410CF089FF206017E09DF80000D2
:10198000032811D19DF8000028700DF101000DF021
:10199000ABFA074638460DF028F880464FF08541EF
:1019A0000CF073FF606001E04FF0FF363046BDE899
:1019B000F88338B5044600208DF800008DF801400A
:1019C0000221684600F07EFC38BD38B5044605208B
:1019D0008DF800008DF801400221684600F072FC8D
:1019E00038BD38B5044608208DF800008DF8014058
:1019F0000221684600F066FC38BD38B50446012077
:101A00008DF800000DF1010120460DF074FA03215C
:101A1000684600F057FC38BD38B5044604208DF800
:101A200000008DF801400221684600F04BFC10B127
:101A30006FF0030038BD204600F09BFC0020F9E762
:101A40001CB50A208DF80000002000F0DAFB01210F
:101A5000684600F037FC0A2000F0CDFB05216846FF
:101A600000F01DFA4FF400314B4802F0A3FD0128AD
:101A700001D100F093F8012000F0C3FB9DF80000B5
:101A8000022809D19DF80100012803D09DF801002A
:101A9000022801D100201CBD6FF00400FBE710B547
:101AA0000446207C10B1207C00F063FCAFF287106C
:101AB000D4E9021200F047FC142001F0C8F83549BF
:101AC00060680860FFF7BCFF10B16FF0040010BD44
:101AD0000A2000F090FB2088FFF78FFF10B14FF035
:101AE000FF30F4E70A2000F086FB0020EFE738B56E
:101AF00004460D4607208DF800008DF801408DF852
:101B000002500321684600F0DDFB38BD08B509200E
:101B10008DF800000121684600F0D4FB08BD10B527
:101B200000F0FEFB642000F066FB002010BD38B51D
:101B3000044605208DF800008DF801400321684619
:101B400000F0C0FB38BD10B50446204600F02BFC69
:101B500010BD38B504460D4607208DF800008DF8FD
:101B600001408DF802500321684600F0ABFB38BD00
:101B700038B5044604F0030010B96FF0010038BD19
:101B800008208DF800008DF801400321684600F020
:101B900099FBF4E7500000200058004000B585B0E4
:101BA000FE48008820F00100FC49088014208DF8D0
:101BB00013004FF44060ADF8100003208DF81200C0
:101BC00004A9F74801F0A4FA4FF48061F44801F049
:101BD0004CFB4FF40061F24801F047FB00BF4FF4AB
:101BE0008061EF4801F027FB0028F8D00FE04FF4A8
:101BF0008060EB4914310860142001F049F84FF47B
:101C00008060E74910310860142001F041F84FF47A
:101C10000061E34801F00FFB0028E8D04FF4806139
:101C2000DF4801F024FB04E04FF48061DC4801F060
:101C30001EFB4FF48061DA4801F0FDFA0128F3D071
:101C40004FF40061D64801F012FB00BF4FF4006171
:101C5000D34801F0F0FA0128F8D04FF48061D04861
:101C600001F003FB00BF4FF48061CD4801F0E3FABF
:101C70000028F8D04FF40061C94801F0F6FA00BF1F
:101C80004FF40061C64801F0D6FA0028F8D01C20B5
:101C90008DF813004FF44060ADF8100003208DF86C
:101CA000120004A9BE4801F033FABC48008840F491
:101CB0000040BA4908800846008820F400400880A7
:101CC0000846008840F0010008800815ADF80A00B9
:101CD0000001ADF80C00B34800904BF6FF70ADF872
:101CE00006000020ADF804005520ADF80800694654
:101CF000AA4802F0BAFAAC49A84802F078FC0121DF
:101D0000A64802F030FB4FF40031A44802F052FC28
:101D100005B000BD2DE9F04105460F4614461E46AC
:101D200008E0A24801880088401EA04A108009B936
:101D3000FFF734FF4FF40031984802F03BFC0128D4
:101D4000EFD041F28830994908800121934802F090
:101D50002EFB04E095480088401E94490880944971
:101D60008E4802F005FC0028F4D041F288308F49FB
:101D700008806806010E0022884802F06EFB04E02D
:101D80008A480088401E894908808A49834802F0B1
:101D9000EFFB0028F4D041F28830844908803946AE
:101DA0007E4802F054FB04E080480088401E7F49D2
:101DB00008808049891C794802F0DAFB0128F3D1B8
:101DC00041F28830794908800121744802F0EFFA25
:101DD00004E076480088401E7449088074496F48C2
:101DE00002F0C6FB0028F4D041F288306F49088029
:101DF0006806010E0122694802F02FFB04E06B48DF
:101E00000088401E694908806949491C634802F0FE
:101E1000AFFB0028F3D041F28830644908801BE012
:101E200001215E4802F0DBFA04E060480088401EB1
:101E30005E4908805E493F31584802F099FB01280D
:101E4000F3D141F2883059490880544802F001FB2F
:101E50002070641C701EC6B2701E0028E0D10021E4
:101E60004E4802F0BCFA01214C4802F0ACFA04E002
:101E70004E480088401E4D4908804D493F31474833
:101E800002F076FB0128F3D141F2883047490880FF
:101E9000424802F0DEFA20700120BDE8F08170B502
:101EA00004460D462B462246434801780078FFF74A
:101EB00031FF06460EB1002070BD6FF00300FBE756
:101EC00070B504460025072C11D2DFE804F0100499
:101ED00006080A0C0E00032509E0032507E0052586
:101EE00005E0052503E0032501E0032500BF00BF51
:101EF00029463248FFF7D3FF90BB072C2FD2DFE8EB
:101F000004F02E040A101922280021462B482C4ADE
:101F10001268904723E021462848294A12689047D2
:101F20001DE004202549087021462448244A1268EF
:101F3000904714E004202149087021461F48204A98
:101F4000126890470BE021461C481D4A12689047D2
:101F500005E0214619481A4A1268904700BF00BFA1
:101F600070BD1CB50121042001F092FD48F2500023
:101F7000ADF8040048208DF8070003208DF8060016
:101F800001A9104801F0C4F80421002001F0D6F99D
:101F90000621002001F0D2F90F2115E00058004081
:101FA000000C0140801A0600000400107C00002094
:101FB0000100030082000700780000205800002084
:101FC0005400002000080140002001F0B7F9012171
:101FD000082001F05DFD4FF48950ADF80400482061
:101FE0008DF8070003208DF8060001A9FD4801F0D7
:101FF0008FF80521012001F0A1F90821012001F04D
:102000009DF90C21012001F099F90121084601F008
:102010003FFD4FF4A06000F0ADFF0A208DF80000F6
:1020200000208DF8010001208DF802008DF80300DA
:10203000684600F0A4FF17208DF8000000208DF8FE
:10204000010002208DF8020001208DF8030068468F
:1020500000F095FF28208DF8000000208DF8010089
:1020600003208DF8020001208DF80300684600F07F
:1020700086FF1CBD08B501210C2001F009FDA02040
:10208000ADF8000010208DF8030003208DF8020049
:102090006946D54801F03CF842F21820ADF800003E
:1020A00010208DF8030003208DF802006946CD480A
:1020B00001F02EF808BD10B5044600BF0121CB4841
:1020C00002F075F900BFCA49C84802F073FA002847
:1020D000F9D06006010E0022C44802F0BEF9C449DE
:1020E000491CC24802F066FA0028E7D0C149BF483F
:1020F00002F07DFA0121BD4802F065F910BD2DE91D
:10210000F04106460F4614461D4608E0BA480188CD
:102110000088401EB84A108009B9FFF73FFD4FF410
:102120000031B24802F046FA0128EFD041F288307F
:10213000B14908800121AD4802F039F904E0AE4808
:102140000088401EAC490880AC49A84802F010FA4B
:102150000028F4D041F28830A74908807006010EAB
:102160000022A24802F079F904E0A3480088401E4A
:10217000A1490880A2499D4802F0FAF90028F4D04C
:1021800041F288309C4908803946984802F05FF94E
:1021900004E099480088401E974908809849891CA6
:1021A000924802F0E5F90028F3D041F288309249D4
:1021B000088017E021788D4802F049F9641C681EF8
:1021C000C5B204E08C480088401E8B4908808C49C9
:1021D000891C864802F0CCF90028F3D041F28830FF
:1021E00085490880002DE5D10121804802F0EBF8F7
:1021F0000120BDE8F08110B50446204600F055FDF1
:1022000010BD1CB504467F4804707CB149F27010C3
:10221000009000208DF804000C208DF805000120AE
:102220008DF80600684601F0A9FC08E049F270103C
:10223000009000208DF80600684601F09FFC1CBD50
:1022400000B585B00121880501F02FFC012108208F
:1022500001F01EFC1C208DF813004FF44060ADF817
:10226000100003208DF8120004A95E4800F050FF12
:102270004FF400315D4802F09DF9012801D1FFF7CC
:102280008DFC4FF48060ADF80A000001ADF80C0041
:102290005D4800904BF6FF70ADF806000020ADF8E9
:1022A00004005520ADF808006946504801F0DDFFF4
:1022B00050494E4802F09BF901214C4802F053F876
:1022C00005B000BD2DE9F04105460E462F784D487A
:1022D000007810B10020FFF794FF012E0BDD05F10F
:1022E0000108701EC3B24246394648480078FFF7DD
:1022F00006FF044607E000231A46394643480078A3
:10230000FFF7FDFE04463F48007810B90120FFF7B3
:1023100078FF14B10020BDE8F0816FF00300FAE708
:1023200010B53B48008881B23A48006800F09FFF32
:102330006420FFF760FF3648008881B235480068A6
:1023400000F093FF10BD70B504460E4615463048A8
:1023500006603148056031480460FFF7E1FF4FF443
:10236000FA60FFF748FFFFF7FCFDFFF769FF002069
:1023700070BD26490870704773B50446FFF760FFCB
:10238000012301AA04212046FFF7B9FE05460DB935
:10239000FC207CBD9DF80400FFF7EBFF0020F8E770
:1023A0001A48007870470146062977DC072917D2BA
:1023B000DFE801F09B043A4D607588001120134A54
:1023C00010700120164A10700748164A106010203D
:1023D000114A106004480F4A106020200C4A106017
:1023E00083E00000000C014000080140005800405C
:1023F00001000010000400107C0000200100030018
:10240000820007007A000020801A06007800002071
:102410005C000020640000206000002054000020C8
:1024200079000020680000201220334A107002203A
:10243000324A10703248334A10604020324A1060ED
:102440002F48324A10608020314A10604DE013203E
:10245000294A10700320294A10702E48294A10601A
:102460008014294A10602B48284A10604014284ADA
:1024700010603AE01420204A107004201F4A1070A7
:102480001F48204A10604FF400401F4A1060214846
:102490001E4A106008201E4A106026E026E0152023
:1024A000154A10700520154A10701A48154A106018
:1024B0002020154A10601748144A10601020144A52
:1024C000106012E016200C4A107006200B4A1070A3
:1024D00010480C4A106080150B4A10600D480B4ADA
:1024E000106040150A4A106000BF02E06FF0010062
:1024F00070470020FCE700007800002079000020F1
:1025000000080140680000206000002064000020F6
:102510005C000020000C014008B50A20009002E099
:102520000098401E009000980028F9D108BD08B519
:102530000121082001F0ACFAC020ADF80000032012
:102540008DF8020014208DF803006946C44800F09D
:10255000DFFD08BD10B58020C14910310860402062
:102560000860FFF7D9FFBE480830006808B90120AD
:1025700000E0002000F0800008B1002010BD8020A5
:10258000B74914310860FFF7C7FFB5480830006845
:1025900000F0800008B10020F0E78020B04914313D
:1025A0000860FFF7B9FF0120E8E710B54020AC490B
:1025B00014310860FFF7B0FF8020A949143108608A
:1025C000FFF7AAFF4020A64910310860FFF7A4FFDB
:1025D0008020A34910310860FFF79EFF10BD10B5A1
:1025E00040209F4914310860FFF796FF80209C49E6
:1025F00014310860FFF790FF4020994910310860BE
:10260000FFF78AFF4020964914310860FFF784FFE6
:1026100010BD10B54020924914310860FFF77CFFCF
:1026200080208F4910310860FFF776FF40208C49E9
:1026300010310860FFF770FF4020894914310860AD
:10264000FFF76AFF10BD10B54020854914310860BE
:10265000FFF762FF8020824910310860FFF75CFFBE
:1026600040207F4910310860FFF756FF7C48083052
:10267000006800F0800028B14020794914310860DA
:10268000002010BD40207649143108600120F8E791
:1026900070B5044608251BE04020714914310860DC
:1026A000FFF73AFF04F0800020B180206C49103120
:1026B000086003E080206A49143108606006040E57
:1026C000FFF72AFF4020664910310860FFF724FF1A
:1026D0002800A5F10101CDB2DED1402060491431BE
:1026E000086070BD70B50825002480205C49103159
:1026F000086015E06006040E402059491431086056
:10270000FFF70AFF4020564910310860FFF704FF29
:1027100053480830006800F0800008B144F001041C
:102720002800A5F10101CDB2E4D140204C4914317B
:102730000860204670BD2DE9F04105460E4617465B
:102740009846FFF707FF10B90020BDE8F08100218F
:1027500041EA4501C8B2FFF79BFFFFF774FF18B9C4
:10276000FFF723FF0020F0E73046FFF791FFFFF768
:102770006AFF00240BE018F80400FFF789FFFFF759
:1027800062FF18B9FFF711FF0020DEE7641CBC42AE
:10279000F1DBFFF70AFF0120D7E770B504460D46CD
:1027A0001646FFF7D7FE08B9002070BD002141EAA8
:1027B0004401C8B2FFF76CFFFFF745FF18B9FFF7F8
:1027C000F4FE0020F1E72846FFF762FFFFF73BFF2A
:1027D0003046FFF75DFFFFF736FFFFF7E6FE01200B
:1027E000E3E72DE9F04105460F4614461E46FFF784
:1027F000B1FE10B90020BDE8F081002141EA450199
:10280000C8B2FFF745FFFFF71EFF18B9FFF7CDFE6F
:102810000020F0E73846FFF73BFFFFF714FFFFF714
:1028200099FE012101EB4501C8B2FFF731FFFFF727
:102830000AFF0CE0FFF756FF3070012C02D1FFF7C2
:10284000E8FE01E0FFF7CBFE761C601EC4B2002C50
:10285000F0D1FFF7AAFE0120CDE70020704700006D
:10286000000C014000B585B00121052001F010F9F0
:102870000121880301F00CF94FF40070ADF810004D
:1028800018208DF8130003208DF8120004A9804849
:1028900000F03EFC4FF48060ADF8100004208DF88D
:1028A000130004A97A4800F033FC04A9784800F02A
:1028B0002FFC784800900020ADF80400ADF8060029
:1028C000ADF80800ADF80C000C20ADF80A00694620
:1028D000714800F0AEFD012240F225516E4800F033
:1028E00040FE01216C4800F030FE40216A4800F0B3
:1028F00014FF05B000BD08B54FF4A06000F03AFB2E
:1029000025208DF8000002208DF8010000208DF8B0
:10291000020001208DF80300684600F030FB08BD7E
:1029200070B504460D46E1B25B4800F07BFE00BF87
:102930008021594800F0E4FE0028F9D0204670BDFF
:1029400010B504462146544800F06CFE00BF4021FB
:10295000514800F0D5FE0028F9D010BD70B50446EE
:102960000D460DE014F8011B4B4800F05BFE00BF64
:102970008021494800F0C4FE0028F9D0681EC5B285
:10298000002DEFD170BD2DE9F0410446642094FB89
:10299000F0F0C5B2642094FBF0F100FB11400A2175
:1029A00090FBF1F0C6B20A2094FBF0F100FB11405D
:1029B000C7B205F13001C8B2FFF7C2FF06F130011E
:1029C000C8B2FFF7BDFF07F13001C8B2FFF7B8FF8B
:1029D000BDE8F0812DE9F047044642F2107094FB07
:1029E000F0F0C5B242F2107094FBF0F100FB114020
:1029F0004FF47A7190FBF1F0C6B2084694FBF0F107
:102A000000FB1140642190FBF1F0C7B2642094FBFD
:102A1000F0F100FB11400A2190FBF1F000F0FF08FB
:102A20000A2094FBF0F100FB114000F0FF0905F1D2
:102A30003001C8B2FFF784FF06F13001C8B2FFF7DA
:102A40007FFF07F13001C8B2FFF77AFF08F13001CC
:102A5000C8B2FFF775FF09F13001C8B2FFF770FF88
:102A6000BDE8F08770B505462C4603E02078FFF7F7
:102A700067FF641C20780028F8D170BD10B50446AB
:102A8000C4F30720FFF75CFFE0B2FFF759FF10BD6A
:102A900000080140C02709000038014008B50121A5
:102AA000082000F0F5FF4FF40040ADF800001020C2
:102AB0008DF8030003208DF8020069460F4800F0EE
:102AC00027FB0121042000F0E3FF4FF48070ADF8F4
:102AD000000010208DF8030003208DF802006946E5
:102AE000074800F015FB4FF48071054800F0BDFB6E
:102AF0004FF40041014800F0B8FB08BD000C014054
:102B00000008014008B5684604F02AFC08BD08B575
:102B1000684604F06FFC08BD38B504466A460821D3
:102B200020460AF0F7FD38BD10B569480078012845
:102B300005D104F05BFB0BF079F804F068FB10BDE5
:102B400010B56FF0040000F064FA62480068624952
:102B5000B0FBF1F0614908705E4800685E49B0FB67
:102B6000F1F45F480068C910B1FBF0F044435C48E1
:102B700000684FF47A71B1FBF0F05A4908804FF0C9
:102B8000E020006940F002004FF0E02108610846B3
:102B90004461006940F00100086110BD2DE9F04773
:102BA000074600264FF0E020D0F814904B480078FC
:102BB00078434FF47A71B0FBF1F800BFFFF7A2FF42
:102BC0004FF0E020856911E04FF0E0208469AC42CD
:102BD0000CD0AC4202D2281B064403E0A9EB04004F
:102BE000284406442546464500D300E0ECE700BFF4
:102BF000FFF78DFFBDE8F0872DE9F0470746002677
:102C00004FF0E020D0F814903448007807FB00F82B
:102C100000BFFFF777FF4FF0E020856911E04FF02C
:102C2000E0208469AC420CD0AC4202D2281B06449E
:102C300003E0A9EB0400284406442546464500D39A
:102C400000E0ECE700BFFFF762FFBDE8F08770B57A
:102C500004461F480078A0B12348007888B921486D
:102C60000088844206DB1F48008894FBF0F5284664
:102C7000FFF752FF1B48008894FBF0F100FB114066
:102C800084B24FF47A7104FB01F0FFF7B5FF70BD19
:102C9000014605E0002001E0421CD0B20A28FBDB1F
:102CA0000A00A1F10101F5D1704710B5044603E017
:102CB0004FF47A70FFF7ECFF2000A4F10104F7D184
:102CC00010BD00BF0100A0F10100FBD17047000062
:102CD000DD0000208400002000127A007E00002029
:102CE00068F1000880000020DC0000201FB50121F1
:102CF000052000F0CDFE0120ADF80C0003208DF87A
:102D00000E0004208DF80F0003A9144800F000FA0B
:102D10000021084600F012FB0120009000208DF8F1
:102D200004000C208DF8050001208DF8060068468F
:102D300000F024FF4FF4A06000F01CF906208DF88D
:102D4000080000208DF8090001208DF80A008DF898
:102D50000B0002A800F013F91FBD0000000801409D
:102D60000648804706480047FEE7FEE7FEE7FEE725
:102D7000FEE7FEE7FEE7FEE7FEE7FEE7632E00085C
:102D8000ED0000080CB50020019000906E4800682E
:102D900040F480306C49086000BF6B48006800F464
:102DA000003000900198401C0190009818B90198DB
:102DB000B0F5A06FF1D16448006800F4003010B1A4
:102DC0000120009001E0002000900098012843D1EC
:102DD0005E48006840F010005C49086008460068E2
:102DE00020F0030008600846006840F00200086018
:102DF000554840685449486008464068486008465D
:102E0000406840F4806048600846406820F47C10C8
:102E100048600846406840F48810486008460068EA
:102E200040F08070086000BF4748006800F0007004
:102E30000028F9D04448406820F003004249486027
:102E40000846406840F00200486000BF3E484068C5
:102E500000F00C000828F9D10CBD10B5FFF792FF67
:102E600010BD10B53848006840F0010036490860D0
:102E700008464068364908403349486008460068BB
:102E800034490840304908600846006820F4802032
:102E900008600846406820F47C1048600846406896
:102EA00040F4881048604FF41F008860FFF7D5FF9A
:102EB0004FF000602849086010BD10B500210020C7
:102EC0000022214B5B6803F00C0121B1042906D0DC
:102ED000082928D107E0214B214C236027E0214B12
:102EE0001F4C236023E0184B5B6803F47010164BF3
:102EF0005B6803F48032022303EB904022B91A4B43
:102F00004343174C23600DE00F4B5B6803F4003321
:102F100023B1164B4343124C236003E0114B434350
:102F20000F4C236003E00D4B0D4C236000BF00BF2E
:102F3000054B5B68C3F303130D4CE15C084B1B6846
:102F4000CB40074C236010BD00100240002002401F
:102F50000000FFF8FFFFF6FE08ED00E000127A0027
:102F600084000020001BB70000093D00808D5B003D
:102F70008800002031490143314A1160704770B523
:102F8000002100230F22C47804B32D4C246804F4DC
:102F9000E064C4F5E064210AC1F10403CA40447846
:102FA00004FA03F18478144021430901254C067882
:102FB000A155047804F01F050124AC4005786D117B
:102FC000AD0005F1E025C5F8004109E0047804F002
:102FD0001F050124AC401C4D0678761145F82640AB
:102FE00070BD1A4A0A400243154B1B1F1A607047F6
:102FF00039B1134A121D12680243114B1B1D1A608E
:1030000006E00F4A121D126882430D4B1B1D1A6009
:103010007047042808D14FF0E021096941F004010C
:103020004FF0E022116107E04FF0E021096921F043
:1030300004014FF0E0221161704700000000FA0522
:103040000CED00E000E400E080E100E080FFFF1F05
:1030500010B50446CC48844208D10121042000F078
:1030600031FD0021042000F02DFD46E0C7488442D8
:1030700008D10121082000F025FD0021082000F0E2
:1030800021FD3AE0C248844208D10121102000F01D
:1030900019FD0021102000F015FD2EE0BD488442EE
:1030A00008D10121202000F00DFD0021202000F09A
:1030B00009FD22E0B848844208D10121402000F0F7
:1030C00001FD0021402000F0FDFC16E0B3488442E1
:1030D00008D10121802000F0F5FC0021802000F0C3
:1030E000F1FC0AE0AE48844207D10121801500F0CE
:1030F000E9FC0021A01500F0E5FC10BD10B5012190
:10310000084600F0DFFC0021012000F0DBFC10BDD0
:103110002DE9F0410246002500260020002300246E
:10312000002791F803C00CF00F0591F803C00CF0D4
:10313000100CBCF1000F03D091F802C04CEA050559
:1031400091F800C0BCF1000F31D0146800202BE0D2
:103150004FF0010C0CFA00F3B1F800C00CEA0306C2
:103160009E4220D183004FF00F0C0CFA03F7BC43B2
:1031700005FA03FC4CEA040491F803C0BCF1280FE3
:1031800006D14FF0010C0CFA00FCC2F814C00AE0A2
:1031900091F803C0BCF1480F05D14FF0010C0CFAB7
:1031A00000FCC2F810C0401C0828D1D31460B1F84C
:1031B00000C0BCF1FF0F34DD546800202EE000F1A8
:1031C000080C4FF0010808FA0CF3B1F800C00CEA43
:1031D00003069E4221D183004FF00F0C0CFA03F737
:1031E000BC4305FA03FC4CEA040491F803C0BCF1AB
:1031F000280F05D100F1080C08FA0CF8C2F8148069
:1032000091F803C0BCF1480F07D100F1080C4FF052
:10321000010808FA0CF8C2F81080401C0828CED328
:103220005460BDE8F0814FF6FF710180022181708A
:103230000421C17070470246002093680B400BB117
:10324000012000E0002070470146886880B2704786
:1032500002460020D3680B400BB1012000E00020A3
:1032600070470146C86880B270470161704741618C
:1032700070470AB1016100E041617047C160704769
:103280004FF480320A43826181618261826982697E
:10329000704702460020434B18684FF68073184071
:1032A00040EA021008433F4B186070473E49C8612E
:1032B0007047F0B50A46002300240021002500F0E5
:1032C0000046B6F1004F02D1364EF16901E0354EAD
:1032D0007168C0F3034583B200F44016B6F5401F91
:1032E00008D121F070612F4E766826F070662D4F60
:1032F0007E6012E000F48016B6F5801F06D103262A
:1033000006FA05F4A14341F0706106E0460D36016E
:1033100003FA06F6B14341F0706122B1460D360161
:1033200003FA06F6314300F00046B6F1004F02D131
:103330001C4EF16101E01B4E7160F0BD30B5002202
:103340008B071C0F0F2303FA04F2164B08338C1063
:1033500053F824309343134C08348D1044F825302F
:1033600023468C1053F824308C07240F00FA04F401
:1033700023430C4C08348D1044F8253030BD0A49E5
:10338000DC3108607047000000080140000C01407B
:10339000001001400014014000180140001C0140D1
:1033A00000200140000001400000204210B504460A
:1033B000FB48844209D10121880300F083FB0021EE
:1033C0004FF4804000F07EFB32E0F648844209D1A1
:1033D0000121480400F083FB00214FF4003000F08D
:1033E0007EFB25E0F048844209D10121880400F0E9
:1033F00076FB00214FF4802000F071FB18E0EB48D1
:10340000844209D10121C80400F069FB00214FF476
:10341000002000F064FB0BE0E548844208D1012164
:10342000080500F05CFB00214FF4801000F057FB12
:1034300010BD2DE9F04786B005460E460024A24691
:1034400000BFA1460027B08900B100BF2F462C8ADB
:103450004CF6FF700440F08804432C82AC894EF691
:10346000F3100440B088318908437189084304434C
:10347000AC81AC8A4FF6FF400440B0890443AC8273
:1034800001A800F098FAC648874202D1DDF810A0E2
:1034900001E0DDF80CA0A88900F4004040B10AEB7F
:1034A000CA0000EB0A1031684900B0FBF1F807E0F0
:1034B0000AEBCA0000EB0A1031688900B0FBF1F892
:1034C0006420B8FBF0F004012009642101FB10899D
:1034D000A88900F4004040B1322000EBC900B0FBE5
:1034E000F1F000F00700044308E0322000EB09107F
:1034F0006421B0FBF1F000F00F0004432C8106B012
:10350000BDE8F0874FF41651016000218180C18031
:1035100001810C21418100218181704710B5024653
:103520000020108A4FF2FF0318400B884C88234379
:103530008C882343CC8823431843108210BD00217C
:10354000018041808180C180704721B1828942F42D
:103550000052828104E082894DF6FF731A40828115
:103560007047F0B50346002400260025002040F6F1
:103570006A17B94200D100BF1846C1F3421401F0E6
:103580001F06012707FA06F5012C01D10C3004E0D3
:10359000022C01D1103000E014301AB107682F431B
:1035A000076002E00768AF430760F0BD1AB1838A85
:1035B0000B43838202E0838A8B4383827047028AB3
:1035C0004FF6F0731A400282028A0A430282704761
:1035D00082894FF2FF731A40828182890A43828175
:1035E000704721B1828942F00202828104E082891F
:1035F0004FF6FD731A4082817047028A4FF6DF73DF
:103600001A400282028A0A430282704721B1028A6A
:1036100042F48042028204E0028A4BF6FF731A40B1
:1036200002827047C1F30802828070470146888891
:10363000C0F308007047818941F001018181704722
:10364000028BD2B20283028B42EA012202837047CC
:10365000028B02F47F420283028B0A43028370478B
:1036600021B1828A42F02002828204E0828A4FF6EF
:10367000DF731A408282704721B1828A42F01002C1
:10368000828204E0828A4FF6EF731A40828270478A
:1036900021B1828A42F00802828204E0828A4FF6D7
:1036A000F7731A408282704721B1828942F4004246
:1036B000828103E08289C2F30E028281704721B1C8
:1036C000828A42F40062828204E0828A4FF2FF73AF
:1036D0001A4082827047828A4FF6FB731A408282B8
:1036E000828A0A438282704721B1828A42F00202B2
:1036F000828204E0828A4FF6FD731A40828270470C
:1037000002460020B1F5007F00D100BF13880B40B6
:103710000BB1012000E00020704701F40072B2F507
:10372000007F00D100BFCA430280704770B50246D7
:10373000002400230025002040F66A16B14200D183
:1037400000BFC1F3421501F01F03012606FA03F37F
:10375000012D02D19689334006E0022D02D1168A4E
:10376000334001E0968A33400C12012606FA04F435
:103770001688344013B10CB1012000E0002070BD68
:1037800010B50022002340F66A14A14200D100BF08
:103790000A1201249440A3B2DC43048010BD00004F
:1037A000003801400044004000480040004C004008
:1037B00000500040DF48006840F00100DD4908602B
:1037C00008464068DC490840DA4948600846006815
:1037D000DA490840D74908600846006820F480208C
:1037E00008600846406820F4FE0048604FF41F005F
:1037F00088607047CF49096821F48031CD4A116053
:103800001146096821F480211160B0F5803F03D092
:10381000B0F5802F0ED106E0C649096841F4803129
:10382000C44A116007E0C349096841F4A021C14AB4
:10383000116000E000BF00BF704710B501460022D4
:10384000002300204A11012A02D1BA4C236806E065
:10385000022A02D1B74C236A01E0B64C636A01F038
:103860001F02012494401C400CB1012000E0002004
:1038700010BD38B5002000900024002500BF312085
:10388000FFF7DBFF05460098401C00900098B0F55C
:10389000A06F01D0002DF2D03120FFF7CEFF08B18C
:1038A000012400E00024204638BD01460020A14A42
:1038B000106820F0F80040EAC10010607047A0498D
:1038C00008607047024600209A4B586820F47C102C
:1038D00042EA01031843974B5860704798490866BD
:1038E000704701460020934A506820F003000843C7
:1038F000506070478F48406800F00C0070470146E8
:1039000000208C4A506820F0F00008435060704757
:1039100001460020874A506820F4E0600843506068
:10392000704701460020834A506820F4605040EA06
:10393000C1005060704729B17E4A527A02437D4BE4
:103940005A7204E07B4A527A82437A4B5A72704729
:103950007B49D8310860704701460020754A50689D
:1039600020F440400843506070470021714A2032E3
:103970001170704A82F82010012802D004280AD160
:1039800004E001216B4A2032117005E00521694AEB
:103990002032117000E000BF00BF70476949086025
:1039A00070476449096A0143624A11627047654978
:1039B00044390860704730B50021002200240023FC
:1039C0005C4D6D6805F00C0121B1042905D0082972
:1039D00023D105E05C4D056022E05C4D05601FE0F1
:1039E000544D6D6805F47012524D6D6805F48034C5
:1039F000022505EB92421CB9554D554305600BE07D
:103A00004C4D6D6805F400351DB1524D55430560B0
:103A100002E04E4D5543056002E04B4D056000BF8E
:103A200000BF444D6D6805F0F00109094A4D6B5C1B
:103A30000568DD4045603F4D6D6805F4E061090AA9
:103A4000454D6B5C4568DD4085603A4D6D6805F419
:103A50006051C90A404D6B5C4568DD40C560354D1D
:103A60006D6805F44041890B3C4D6B5CC568B5FB46
:103A7000F3F5056130BD29B12E4A526902432D4B41
:103A80005A6104E02B4A526982432A4B5A617047BB
:103A900029B1284A92690243264B9A6104E0254ADB
:103AA00092698243234B9A61704729B1214AD269B6
:103AB0000243204BDA6104E01E4AD26982431D4B67
:103AC000DA61704729B11B4AD2680243194BDA60A8
:103AD00004E0184AD2688243164BDA60704729B175
:103AE000144A12690243134B1A6104E0114A126925
:103AF0008243104B1A617047124940390860704781
:103B00000F49C86470470B49C87170470948406A3B
:103B100040F0807007494862704701460020054A1E
:103B200092680A400AB1012000E000207047014974
:103B300088727047001002400000FFF8FFFFF6FE99
:103B4000000042428004424200127A00001BB7008B
:103B500000093D00808D5B0098000020A800002037
:103B6000002044490860091D0860091D0860091DFE
:103B7000086041483F4914310860704700213D49C1
:103B80008279002A3AD00A46126803689A430B46A3
:103B90001A600A1D126803689A430B1D1A600279A5
:103BA00011440A6803681A430A60324A08321268EC
:103BB00003689A432F4B08331A601A1D1268036872
:103BC0009A432C4B0C331A604279102A0ED11A1FDB
:103BD000126803681A43274B08331A601A1D1268CB
:103BE00003681A43234B0C331A600DE021494279D4
:103BF00011440A6803681A430A6005E00279114417
:103C00000A6803689A430A607047002101600171E5
:103C10000C214171002181717047164910310968EA
:103C20000143144A10321160704701460020114AC6
:103C3000143212680A400AB1012000E000207047E7
:103C40000C49143108607047014600200022094BDE
:103C50001B6803EA0102074B14331B680B4013B1C6
:103C60000AB1012000E000207047024914310860C9
:103C70007047000000040140FFFF0F0001460020D4
:103C8000FE4A106800F03800084310607047FB4996
:103C9000096821F00801F94A1160114609680143D9
:103CA00011607047F549096821F01001F34A11606D
:103CB00011460968014311607047F148EF494860B7
:103CC000F04848607047EE48EC494860ED4848606D
:103CD0007047EA48006940F08000E8490861704791
:103CE000E648006940F08000E4490861704704201C
:103CF000E249C96801F0010109B101200EE0DF4984
:103D0000C96801F0040109B1022007E0DB49C96874
:103D100001F0100109B1032000E00420704700B554
:103D200002460423FFF7E3FF034603E0FFF7DFFF4C
:103D30000346521E012B01D1002AF7D102B90523F7
:103D4000184600BD30B5044604254FF43020FFF777
:103D5000E6FF0546042D17D1C848006940F002006F
:103D6000C649086108464461006940F040000861A6
:103D70004FF43020FFF7D3FF0546C048006941F6F5
:103D8000FD710840BD490861284630BD10B50424C6
:103D90004FF43020FFF7C3FF0446042C16D1B74878
:103DA000006940F00400B54908610846006940F028
:103DB000400008614FF43020FFF7B1FF0446AF48E0
:103DC000006941F6FB710840AC490861204610BD0E
:103DD00000B502460423FFF78AFF034603E0FFF71E
:103DE00086FF0346521E012B01D1002AF7D102B9EA
:103DF0000523184600BD10B504244FF43020FFF70A
:103E0000E7FF0446042C16D19C48006940F00400EA
:103E10009A4908610846006940F0400008614FF483
:103E20003020FFF7D5FF04469448006941F6FB7146
:103E3000084092490861204610BD00208F49C96999
:103E400001F0020109B1012000E00020704730B507
:103E5000A5250424FFF7F1FF00B100254FF4302021
:103E6000FFF75DFF0446042C3AD1854883498860FA
:103E7000844888600846006940F0200008610846D0
:103E8000006940F0400008614FF43020FFF747FF21
:103E90000446042C1BD17948006941F6DF710840C3
:103EA000764908610846006940F0100008617648CC
:103EB0000580E002FFF733FF0446052C10D06F4861
:103EC000006941F6EF7108406C49086108E0052C73
:103ED00006D06A48006941F6EF71084067490861F9
:103EE000204630BD78B506460C46042500200090DB
:103EF000E802FFF714FF0546042D24D15F4800694E
:103F000040F001005D4908613480E802FFF707FFD7
:103F10000546042D10D1B01C0090200C009908809B
:103F2000E802FFF7FCFE05465448006941F6FE71C1
:103F300008405249086106E05048006941F6FE71A8
:103F400008404E490861284678BD70B504460D46C4
:103F50000426F002FFF7E3FE0646042E11D147487F
:103F6000006940F00100454908612580F002FFF733
:103F7000D6FE06464148006941F6FE7108403F49B9
:103F80000861304670BD70B505460E460424E00257
:103F9000FFF7C5FE0446042C17D13948374988601D
:103FA000384888600846006940F0100008612E809B
:103FB000E002FFF7B4FE0446052C06D02F48006946
:103FC00041F6EF7108402D490861204670BD2DE98A
:103FD000F04304464FF6FF763746B046B146042517
:103FE000E443E6B2C4F30727C4F307484FEA146971
:103FF000E802FFF794FE0546042D49D120481F49E9
:104000008860204888600846006940F01000086118
:10401000FF2E06D01C4808300680E802FFF77FFE1E
:104020000546042D08D1FF2F06D017480A30078017
:10403000E802FFF774FE0546042D0AD1B8F1FF0F20
:1040400007D011480C30A0F80080E802FFF767FEA7
:104050000546042D0AD1B9F1FF0F07D00A480E30EA
:10406000A0F80090E802FFF75AFE0546052D0FD094
:104070000248006941F6EF71084007E00020024065
:1040800023016745AB89EFCD00F8FF1F6649086142
:104090002846BDE8F08330B5054604244FF43020AF
:1040A000FFF73DFE0446042C41D160485E4988601C
:1040B0005F4888600846006940F0200008610846B3
:1040C000006940F0400008614FF43020FFF727FE00
:1040D0000446042C22D15448006941F6DF7108409F
:1040E000514908610846006940F0100008611DB19F
:1040F00000205049088002E0A5204E4908804FF476
:104100003020FFF70CFE0446052C10D0464800690D
:1041100041F6EF7108404449086108E0052C06D0DB
:104120004148006941F6DF7108403F490861204677
:1041300030BDF0B505460E46174604243B483A49C3
:1041400088603B488860E002FFF7E9FD0446042CE4
:1041500019D13548006940F010003349086147F033
:10416000F800304328433349891C0880E002FFF7F8
:10417000D6FD0446052C06D02B48006941F6EF71A8
:104180000840294908612046F0BD2748C0698008D9
:1041900070472548006A704700202349096801F0EC
:1041A000200109B1012000E00020704729B11E4A1A
:1041B000126902431C4B1A6104E01B4A12698243D4
:1041C000194B1A61704701460020012908D1164A8F
:1041D000D26902F001020AB1012008E0002006E0E5
:1041E000114AD2680A400AB1012000E0002070475D
:1041F0000D49C860704704200B49C96801F00101EE
:1042000009B101200EE00849C96801F0040109B1B3
:10421000022007E00449C96801F0100109B1032038
:1042200000E00420704700000020024023016745A1
:10423000AB89EFCD00F8FF1F10B50446F748844264
:1042400009D101214805FFF74AFC00214FF4001075
:10425000FFF745FC08E001218805FFF740FC00213D
:104260004FF48000FFF73BFC10BD2DE9F04385B013
:1042700004460D460026B1460427DFF8A483A6882D
:104280004FF6C07006406846FFF795FBDDF80880E2
:10429000E448B8FBF0F01FFA80F946EA0906A68068
:1042A00020884FF6FE71084020800026DE492868ED
:1042B00088420CD828684000B8FBF0F087B2042F81
:1042C00000DA04273E4309F10100208427E0E88852
:1042D0004BF6FF71884206D1286800EB4000B8FB1E
:1042E000F0F087B209E0286800EBC00101EB001094
:1042F000B8FBF0F087B247F48047C7F30B0008B96A
:1043000047F0010747F4004006434FF4967009FB5D
:1043100000F04FF47A7190FBF1F0401C2084A683EA
:10432000208840F00100208026884FF6F5300640B6
:10433000A8886989084306432680A88929890843F3
:10434000208105B0BDE8F08341F288310160002191
:1043500081804BF6FF71C1800021018141814FF4C2
:1043600080418181704721B1028842F001020280C0
:1043700004E002884FF6FE731A400280704721B1B4
:10438000828842F40062828004E082884FF2FF73E8
:104390001A408280704721B1828842F48052828024
:1043A00004E082884EF6FF731A408280704721B184
:1043B000028842F48072028004E002884FF6FF63B4
:1043C0001A400280704721B1028842F400720280D4
:1043D00004E002884FF6FF531A400280704721B173
:1043E000028842F48062028004E002884FF6FF33C4
:1043F0001A40028070470A46002181894FF60173F6
:10440000194002F0FE0319438181704721B182896E
:1044100042F00102828104E082894FF6FE731A4065
:104420008281704721B1028842F04002028004E09C
:1044300002884FF6BF731A40028070471AB1838812
:104440000B43838002E083888B4383807047018223
:1044500070470146088AC0B2704712B141F00101AD
:1044600002E04FF6FE7319400182704708B502461C
:104470000020009000920098084400900098008866
:1044800008BD21B1028842F40042028003E00288A4
:10449000C2F30E0202807047B1F5006F04D10288AA
:1044A00042F40062028004E002884FF2FF731A4077
:1044B00002807047B1F5005F04D1028842F40052D7
:1044C000028004E002884DF6FF731A4002807047B4
:1044D00021B1028842F48052028004E002884EF644
:1044E000FF731A4002807047B1F5006F04D1028853
:1044F00042F40062028004E002884FF2FF731A4027
:104500000280704721B1028842F02002028004E05C
:1045100002884FF6DF731A40028070470146088B0D
:104520000012704721B1028842F01002028004E0BC
:1045300002884FF6EF731A400280704721B9028853
:1045400042F08002028004E002884FF67F731A4036
:1045500002807047B1F5804F05D0828B4BF6FF7318
:104560001A40828303E0828B42F480428283704748
:1045700070B502460024002500230020958A138B85
:104580001B0445EA030626F07F4404EA01068E4236
:1045900001D1012000E0002070BD10B501460020CF
:1045A000002300228B8A0A8B120443EA020424F0BF
:1045B0007F4010BD0CB502460020002301930093FC
:1045C00000920B0F019321F07F41019B1BB1009BD7
:1045D0001433009303E0090C009B18330093009BF5
:1045E0001B680B400BB1012000E000200CBD002235
:1045F00021F07F42D3438382704730B502460020CA
:104600000023948801F0E06504EA154321F07F411E
:10461000948A0C4054B14BB1012008E00054004092
:1046200000127A0040420F00A0860100002030BD39
:10463000002221F07F42D3438382704710B50446A5
:10464000FE48844208D10121C014FFF73BFA002143
:10465000E014FFF737FAC4E0B4F1804F08D101212C
:104660000846FFF73CFA00210120FFF738FAB8E0CE
:10467000F348844208D101210220FFF730FA0021DB
:104680000220FFF72CFAACE0EE48844208D1012169
:104690000420FFF724FA00210420FFF720FAA0E00D
:1046A000E948844208D101210820FFF718FA0021C7
:1046B0000820FFF714FA94E0E448844208D101216D
:1046C0001020FFF70CFA00211020FFF708FA88E00D
:1046D000DF48844208D101212020FFF700FA0021A1
:1046E0002020FFF7FCF97CE0DA48844208D1012160
:1046F0004014FFF7E7F900216014FFF7E3F970E0D9
:10470000D548844209D10121C804FFF7DBF9002113
:104710004FF40020FFF7D6F963E0D048844209D176
:1047200001210805FFF7CEF900214FF48010FFF7B3
:10473000C9F956E0CA48844209D101214805FFF76A
:10474000C1F900214FF40010FFF7BCF949E0C5485A
:10475000844208D101214020FFF7C1F90021402007
:10476000FFF7BDF93DE0C048844208D10121802017
:10477000FFF7B5F900218020FFF7B1F931E0BB4820
:10478000844208D101218015FFF7A9F90021A01565
:10479000FFF7A5F925E0B648844209D101210804B4
:1047A000FFF790F900214FF48030FFF78BF918E004
:1047B000B048844209D101214804FFF783F9002160
:1047C0004FF40030FFF77EF90BE0AB48844208D18C
:1047D00001218804FFF776F900214FF48020FFF7CC
:1047E00071F910BD00220288944B98420ED0994B6B
:1047F00098420BD0B0F1804F08D0914B984205D031
:10480000904B984202D0904B984204D14FF68F7350
:104810001A404B881A438D4B984207D08C4B9842D4
:1048200004D04FF6FF431A40CB881A4302808B888E
:1048300083850B880385814B98420BD0854B98422A
:1048400008D08B4B984205D08A4B984202D08A4BB5
:10485000984201D10B7A038601238382704770B599
:10486000002400220023058C4FF6FE763540058497
:10487000028C8388048B4FF68F752C40B51E2C401C
:104880000D882C43751E2A400D892A434D882A43E2
:104890006A4DA8420BD06F4DA84208D0744DA84273
:1048A00005D0744DA84202D0734DA84213D14FF6E3
:1048B000F7752A404D892A434FF6FB752A408D88AB
:1048C0002A434FF6FF652B404FF6FF552B408D894D
:1048D0002B43CD892B4383800483CD888586028436
:1048E00070BD70B5002400220023058C4FF6EF76D2
:1048F00035400584028C8388048B48F6FF752C4074
:104900004FF6FF452C400D884FF6FF7606EA052549
:104910002C434FF6DF752A400D8906EA05152A4318
:104920004D8806EA05152A43444DA84202D0494D58
:10493000A8421DD14FF67F752A404D894FF6FF766C
:1049400006EA05152A434FF6BF752A408D8806EA08
:1049500005152A434FF6FF352B404FF2FF752B40CC
:104960008D8906EA85052B43CD8906EA85052B430B
:1049700083800483CD880587028470BD70B50024D0
:1049800000220023058C4FF6FF6635400584028C1B
:104990008388848B4FF68F752C404FF6FC752C4026
:1049A0000D882C434FF6FF552A400D894FF6FF76B0
:1049B00006EA05252A434D8806EA05252A431F4DA8
:1049C000A84202D0234DA8421DD14FF2FF752A40C4
:1049D0004D894FF6FF7606EA05252A434FF6FF3547
:1049E0002A408D8806EA05252A434EF6FF752B409E
:1049F0004DF6FF752B408D8906EA05152B43CD89B1
:104A000006EA05152B4383808483CD88858702843D
:104A100070BD70B5002200230024058C4EF6FF7691
:104A200035400584038C8488828B48F6FF752A40C4
:104A30004FF6FF452A400D8820E00000002C014081
:104A40000004004000080040000C0040001000403E
:104A50000014004000340140004C0140005001406F
:104A60000054014000180040001C0040002000409D
:104A70000040014000440140004801404FF6FF76ED
:104A800006EA05252A434DF6FF752B400D8906EAF7
:104A900005352B434D8806EA05352B43FA4DA842D0
:104AA00002D0FA4DA84208D14BF6FF752C408D89F3
:104AB0004FF6FF7606EA85152C4384808283CD88E5
:104AC000A0F84050038470BD828B4FF2FF331A4030
:104AD0008283828B4FF6FF7303EA01231A4382839A
:104AE0007047F0B50C461546002200210026078CC1
:104AF0004EF6FF7C07EA0C070784828B018C4FF689
:104B0000FF7707EA043640F6FF473A404FF6FF7753
:104B100007EA05273A434FF6FF7707EA03373A4398
:104B2000D94FB8420ED0D94FB8420BD0B0F1804F18
:104B300008D0D74FB84205D0D64FB84202D0D64F92
:104B4000B84206D14DF6FF77394046F480573943D5
:104B500005E047F6FF57394044F4805739438283D4
:104B60000184F0BD828B4FF6F3731A408283828BEF
:104B70000A4382837047F0B50C4615460022002197
:104B80000026078C4FF6FF6C07EA0C070784828B20
:104B9000018C4FF6FF7707EA04264FF60C773A4070
:104BA0004FF6FF7707EA03172F433A43B64FB84251
:104BB0000ED0B64FB8420BD0B0F1804F08D0B44FF2
:104BC000B84205D0B34FB84202D0B34FB84206D175
:104BD0004FF6FF57394046F48077394305E04FF2EE
:104BE000FF57394044F48077394382830184F0BD14
:104BF000028B4FF2FF331A400283028B4FF6FF7392
:104C000003EA01231A4302837047F0B50C461546A8
:104C1000002200210026078C4FF6EF7C07EA0C07E4
:104C20000784028B018C4FF6FF7707EA041640F6E3
:104C3000FF473A404FF6FF7707EA03373A434FF60C
:104C4000FF7707EA05273A438F4FB8420ED08F4FC0
:104C5000B8420BD0B0F1804F08D08D4FB84205D08C
:104C60008C4FB84202D08C4FB84206D14FF6DF7756
:104C7000394046F01007394305E04FF65F77394079
:104C800044F01007394302830184F0BD028B4FF6D4
:104C9000F3731A400283028B0A4302837047F0B514
:104CA0000C46154600220021068C4FF6FE773E404A
:104CB0000684028B018C4FF60C7632407E1C06EA8D
:104CC00003162E433243704EB0420ED06F4EB042A8
:104CD0000BD0B0F1804F08D06D4EB04205D06D4E74
:104CE000B04202D06C4EB04206D14FF6FD76314054
:104CF00044F00106314305E04FF6F576314044F0CB
:104D00000106314302830184F0BD70B505460C46AF
:104D10005D4885420ED05D4885420BD0B5F1804F8D
:104D200008D05B48854205D05A48854202D05A488F
:104D3000854200D100E000BF208850B92389A288B5
:104D400061882846FFF7ABFFE1882846FFF79EFF02
:104D500025E0208804280AD12389A2886188284672
:104D6000FFF753FFE1882846FFF742FF17E020884E
:104D700008280AD12389A28861882846FFF7FBFE0C
:104D8000E1882846FFF7EEFE09E02389A2886188C2
:104D90002846FFF7A6FEE1882846FFF795FE70BD7E
:104DA0002DE9F04105460C4600260127608808B928
:104DB000022600E00026A088012801D1022700E099
:104DC00001272088A0B92389A28861882846FFF797
:104DD00066FFE1882846FFF759FF23893A463146A6
:104DE0002846FFF712FFE1882846FFF701FF13E08E
:104DF0002389A28861882846FFF707FFE1882846B3
:104E0000FFF7F6FE23893A4631462846FFF747FF6B
:104E1000E1882846FFF73AFFBDE8F0810A884B8811
:104E20001A438B881A43CB881A430B891A434B8940
:104E30001A438B891A43A0F8442070474FF6FF713C
:104E4000818000210180C180418001727047002172
:104E5000018041808180C180018141818181C18146
:104E60007047002101804180012181800021C180A3
:104E7000018170470021018041808180C1800181D2
:104E80004181818170470000002C014000340140C5
:104E90000004004000080040000C004021B10288DE
:104EA00042F00102028004E002884FF6FE731A40CD
:104EB0000280704731B1B0F8442042F40042A0F8BB
:104EC000442005E0B0F84420C2F30E02A0F84420CC
:104ED00070471AB183890B43838102E083898B4336
:104EE000838170478182704741EA0203A0F848300D
:104EF00070471AB183890B43838102E083898B4316
:104F00008381704701894FF6F87211400181704723
:104F10000A46002101894FF68F7319401143018120
:104F2000704730B504460D4629462046FFF7F0FF8E
:104F3000208940F00700208130BD2DE9F041044672
:104F40000D4616461F46602D06D13B4601223146CE
:104F50002046FFF75AFE05E03B4601223146204637
:104F6000FFF79DFE29462046FFF7D2FF208940F03B
:104F700007002081BDE8F08130B50C460021018991
:104F8000C9B24FF6FF7505EA0325154325432943AA
:104F9000018130BD2DE9F04105460E461746984681
:104FA000002443463A4631462846FFF7E5FF2C8960
:104FB0004FF6F870044044F007044FF68F70044039
:104FC00044F070042C81BDE8F081F0B504460D4634
:104FD00016461F463B46324629462046FFF7CCFF81
:104FE000208940F480402081F0BD01858282704795
:104FF0000A46002101884FF68F7319401143018042
:105000007047F0B50C4615461E46002100220023CD
:105010000189028B038C4FF6F877394021434FF614
:10502000FC473A4040F201173A434FF6DD773B40E8
:105030004FF6FF7707EA06172F433B4301810283B0
:105040000384F0BD0A460021018B4FF68F7319408F
:105050001143018370470A460021018B48F6FF7314
:1050600019404FF6FF7303EA022319430183704787
:105070000A460021818B4FF68F73194011438183BB
:1050800070470A460021818B48F6FF7319404FF69E
:10509000FF7303EA022319438183704721B1028819
:1050A00042F08002028004E002884FF67F731A40CB
:1050B0000280704721B1828842F00402828004E0BD
:1050C00082884FF6FB731A408280704721B1828834
:1050D00042F00802828004E082884FF6F7731A409B
:1050E0008280704721B1828842F00102828004E010
:1050F00082884FF6FE731A40828070470A4600216C
:10510000018B4FF6F77319401143018370470A462C
:105110000021018B4FF2FF7319404FF6FF7303EA32
:1051200002231943018370470A460021818B4FF601
:10513000F77319401143818370470A460021818B20
:105140004FF2FF7319404FF6FF7303EA022319432E
:10515000818370470A460021018B4FF6FB7319408B
:105160001143018370470A460021018B4FF6FF333C
:1051700019404FF6FF7303EA022319430183704776
:105180000A460021818B4FF6FB731940114381833E
:1051900070470A460021818B4FF6FF3319404FF6C6
:1051A000FF7303EA02231943818370470A460021F3
:1051B000018B4FF67F7319401143018370470A46F4
:1051C0000021018BC1F30E014FF6FF7303EA0223A6
:1051D0001943018370470A460021818B4FF67F7384
:1051E00019401143818370470A460021818BC1F326
:1051F0000E014FF6FF7303EA0223194381837047C0
:105200000A460021018C4FF6FD73194011430184B9
:1052100070470A460021018C4FF6F773194011437D
:10522000018470470A460021018C4FF6DF73194054
:105230004FF6FF7303EA02131943018470470A46CD
:105240000021018C4FF67F7319404FF6FF7303EA7C
:1052500002131943018470470A460021018C4FF65E
:10526000FF5319404FF6FF7303EA022319430184E9
:1052700070470A460021018C4FF2FF7319404FF628
:10528000FF7303EA02231943018470470A46002191
:10529000018C4DF6FF7319404FF6FF7303EA02339A
:1052A00019430184704730B5002301248C40A3B218
:1052B000048C9C430484048C02FA01F5ADB22C43A7
:1052C000048430BD30B5002304248C40A3B2048C88
:1052D0009C430484048C02FA01F5ADB22C4304848F
:1052E00030BD70B503460020002418461830012553
:1052F0008D40ACB21D8CA5431D8409B1082909D18C
:1053000000EB6100056825F0700505600568154330
:1053100005600EE00D1FC5F34E052844056825F411
:10532000E045056005684FF6FF7606EA022635433C
:10533000056070BD21B1028842F00202028004E0E3
:1053400002884FF6FD731A400280704721B102882F
:1053500042F00402028004E002884FF6FB731A4018
:105360000280704721B1828842F08002828004E08E
:1053700082884FF67F731A408280704702884FF60A
:10538000F7731A40028002880A43028070478288BD
:105390004FF68F731A40828082880A43828070475A
:1053A00002894FF6F8731A40028102890A4302818A
:1053B000704702894FF67F731A40028102890A43BF
:1053C000028170478184704781857047818670476C
:1053D0000187704781877047A0F8401070470288A6
:1053E0004FF6FF431A40028002880A43028070474A
:1053F0000146888E70470146088F70470146888FA6
:1054000070470146B1F8400070470146888C7047EC
:105410000146088D704702460020138A0B400BB1ED
:10542000012000E000207047CA430282704730B577
:105430000246002000230024158A05EA010395890D
:1054400005EA010413B10CB1012000E0002030BDD9
:10545000CA4302827047000000B585B06846FEF777
:10546000AAFA019805B000BD10B5FFF7F5FF044694
:105470001748006840F08070154908600020154901
:1054800048600846006840F001000860204600F0CF
:10549000B6F810BD0F49486870472DE9F0478246BD
:1054A000FFF7DAFF4FF0000980460B4A0023404621
:1054B000494609F01DF9064632460B465046002182
:1054C00009F016F904460D4620462946BDE8F08746
:1054D000FCED00E0001000E040420F0010B5002499
:1054E00000BF00BF00F052F9044600BF00BF10210A
:1054F000A14800F0D2FA00BF00BF204600F04AF9F0
:1055000000BF00BF10BD10B5FFF7E8FF10BD10B51C
:1055100000209A490860FFF7A7FF10BD10B5FFF7FC
:10552000F6FFFFF7F0FF10BD00BFFEE770B50546C0
:105530000C46002614B900BFFFF7F6FF15B90A2084
:10554000208070BD00BF00BF00F020F9064600BFFC
:1055500000BF10228849284600F056FF00BF00BF58
:10556000304600F017F900BF00BF0020208000BFC8
:10557000E7E72DE9F04105460C46002714B900BFC6
:10558000FFF7D2FF1DB90A202080BDE8F08110216D
:10559000284600F021FF0646102E15D200BF00BF9E
:1055A00000F0F4F8074600BF00BF102229467248F9
:1055B00000F02AFF00BF00BF384600F0EBF800BF44
:1055C00000BF0020208002E04FF47A70208000BFEE
:1055D000DBE710B5FFF75EFF0446204610BD7047BD
:1055E00000B5014611B900BFFFF79EFF634A10687E
:1055F00008B1002201E04FF4FA620A8000BD5F4961
:105600000860704770B50546284600F0CAF80446A1
:10561000183C204670BD70B50546284600F0C1F81C
:105620000446103C204670BD70B50546284600F083
:10563000B8F8044600BF204670BD30B502460B46A0
:105640000024D2F1FF359C4126D24FF6FF74D2F1EF
:10565000FF359C410FD26FF07F44D2F1FF359C4162
:1056600003D2190E464C605C44E0190C444C645C57
:1056700004F108003EE0FF24D2F1FF359C4105D241
:10568000190A3F4C645C04F1100033E019463C4CAD
:10569000645C04F118002DE04FF6FF750024AD1A8C
:1056A0009C4115D26FF07F450024AD1A9C4107D272
:1056B000140E44EA0321324C645C04F1200019E02A
:1056C000140C44EA03412E4C645C04F1280011E000
:1056D0000024D2F1FF059C4107D2140A44EA036179
:1056E000274C645C04F1300004E01146244C645CF7
:1056F00004F1380030BD70B504460CB9082070BD07
:10570000204600F051F805462846F8E770B50446F3
:105710000CB9102070BD204600F046F8054628461A
:10572000F8E770B504460CB9202070BD204600F0A3
:105730003BF805462846F8E72DE9F04304460D46B8
:10574000002184EA01006940084302D14020BDE8FD
:10575000F083E243E843521C40F1000102EA0406F0
:1057600001EA050730463946FFF767FF8046C8F172
:105770003F094846EBE70000241E0020AC00002053
:1057800070EF000872B6704762B67047EFF3108092
:1057900072B6704780F31088704730BF704720BFE3
:1057A0007047B0FA80F0704790FAA0F0B0FA80F03D
:1057B000704790FAA0F070470146412903DB5A294F
:1057C00001DC012200E00022012A08D0612903DB6C
:1057D0007A2901DC012200E00022012A01D1012204
:1057E00000E00022104670470146412903DB5A2998
:1057F00001DC012200E00022012A08D0612903DB3C
:105800007A2901DC012200E00022012A01D10122D3
:1058100000E00022012A08D0302903DB392901DC0D
:10582000012200E00022012A01D1012200E0002231
:10583000104670470146612903DB7A2901DC012209
:1058400000E00022104670470146412903DB5A2937
:1058500001DC012200E00022104670470146302999
:1058600003DB392901DC012200E0002210467047E9
:105870000146302903DB372901DC012200E0002248
:10588000104670470146302901DB392907DD4129DF
:1058900001DB462903DD612903DB662901DC0122E6
:1058A00000E00022104670470146202901D0092956
:1058B00001D1012200E00022104670470146202954
:1058C00009D00D2907D00A2905D00C2903D00929B0
:1058D00001D00B2901D1012200E0002210467047BF
:1058E0000146202903DB7E2901DC012200E00022A1
:1058F000104670470146212903DB7E2901DC012285
:1059000000E00022104670470146202903DB7E2973
:1059100001DC012200E00022012A35D1202909D032
:105920000D2907D00A2905D00C2903D0092901D057
:105930000B2901D1012200E000222ABB412903DB0F
:105940005A2901DC012200E00022012A08D0612945
:1059500003DB7A2901DC012200E00022012A01D1C7
:10596000012200E00022012A08D0302903DB392976
:1059700001DC012200E00022012A01D1012200E025
:1059800000220AB9012200E00022104670470146B9
:105990004AB2002A01DB1F2901DD7F2901D1012242
:1059A00000E00022104670470146412903DB5A29D6
:1059B00001DC012200E00022012A02D101F12002D3
:1059C00000E00A46D0B270470146612903DB7A291C
:1059D00001DC012200E00022012A02D1A1F1200213
:1059E00000E00A46D0B27047F0B504460B462046A8
:1059F000FFF7EAFF05461846FFF7E6FF0646B54201
:105A000001D1012000E0002007463846F0BD00002B
:105A1000FC48FD4901600146416000218160C16090
:105A2000016141618161C16101620163C1624162E1
:105A3000F6498163C1634FF48061016441640146AA
:105A4000F34A116070472DE9F04105460B46944634
:105A50000027002402E03F021F43641C042CFAD3F9
:105A6000604605F00306294646B1344603E001F8D6
:105A7000013B401E641C08B1042CF8D30A4601E027
:105A800080C2001F0428FBD2114602E001F8013B4E
:105A9000401E0028FAD1BDE8F08130B505460C461D
:105AA000224600212846FFF7CEFF30BD2DE9F04FFA
:105AB00085B007468846914646463D46AE4207D9E0
:105AC0004A464146384601F01DF905B0BDE8F08F61
:105AD0004C4607EB0900451E08EB0900461EA81BB3
